:100000000C94D3000C94FB000C94FB000C94FB00AC
:100010000C94FB000C94FB000C94FB000C94FB0074
:100020000C94FB000C94FB000C94FB000C94FB0064
:100030000C94FB000C94FB000C94FB000C94FB0054
:100040000C943F050C94FB000C940D050C94E704F4
:100050000C94FB000C94FB000C94FB000C94FB0034
:100060000C94FB000C94FB00000000002300260011
:10007000290000000000240027002A0000000000E2
:10008000250028002B0004040404040404040202D4
:100090000202020203030303030301020408102007
:1000A0004080010204081020010204081020000012
:1000B0000008000201000003040700000000000027
:1000C0000000456E746572206578706F7375726597
:1000D0002074696D65205B6D6963726F7365636F12
:1000E0006E64735D20757020746F203F2D6269749B
:1000F000732E20456E7465722031303030212066B9
:100100006F7220313030302075730043616C6C6940
:100110006E672063617074757265282920616E6452
:100120002072656164506963747572652829007472
:1001300065726D696E616C00436865636B696E67BB
:10014000205265616479207374617475733A00425A
:10015000656474696D6520666F722045504339305F
:10016000310057616B696E672075702045504339C7
:1001700030312028656E64732053657269616C2983
:10018000005175697474696E67206C6F6F70696E69
:1001900067005374617274696E67206C6F6F706969
:1001A0006E6700008B0711241FBECFEFD8E0DEBFC3
:1001B000CDBF23E0A0E2B1E001C01D92A43DB20793
:1001C000E1F711E0A0E0B1E0EAE4F4E102C005905B
:1001D0000D92A032B107D9F710E0C3EDD0E004C012
:1001E0002197FE010E943208C23DD107C9F70E9443
:1001F00089050C94230A0C940000E3E3F3E0A08942
:10020000B18982E08C93A485B5851C92A685B785BB
:1002100080E18C93108EA489B58986E08C93A289A5
:10022000B3898C9180618C93A289B3898C91886009
:100230008C93A289B3898C9180688C930288F3890E
:10024000E02D80818F7D808308958CBD9DBD0895B4
:100250001EBC00000DB407FEFDCF8EB50895AF9211
:10026000BF92CF92DF92EF92FF920F931F93CF93A3
:10027000DF936C017B018B01040F151FEB015E0105
:10028000AE18BF08C017D10759F06991D601ED919A
:10029000FC910190F081E02DC6010995892B79F739
:1002A000C501DF91CF911F910F91FF90EF90DF90EB
:1002B000CF90BF90AF900895FC01538D448D252FB2
:1002C00030E0842F90E0821B930B541710F0CF96F0
:1002D000089501970895FC01918D828D981761F022
:1002E000A28DAE0FBF2FB11D5D968C91928D9F5F39
:1002F0009F73928F90E008958FEF9FEF0895FC0118
:10030000918D828D981731F0828DE80FF11D858DCA
:1003100090E008958FEF9FEF0895FC01918D228D5D
:10032000892F90E0805C9F4F821B91098F739927E2
:10033000089583E393E00E948D0121E0892B09F465
:1003400020E0822F089580E090E0892B29F00E9420
:10035000990181110C9400000895FC01A48DA80F4F
:10036000B92FB11DA35ABF4F2C91848D90E00196F7
:100370008F739927848FA689B7892C93A089B18917
:100380008C91837080648C93938D848D981306C0B8
:100390000288F389E02D80818F7D80830895EF921C
:1003A000FF920F931F93CF93DF93EC0181E0888F2F
:1003B0009B8D8C8D98131AC0E889F989808185FFFF
:1003C00015C09FB7F894EE89FF896083E889F989A1
:1003D00080818370806480839FBF81E090E0DF91A3
:1003E000CF911F910F91FF90EF900895F62E0B8DF6
:1003F00010E00F5F1F4F0F731127E02E8C8D8E11B1
:100400000CC00FB607FCFACFE889F989808185FF17
:10041000F5CFCE010E94AD01F1CFEB8DEC0FFD2F9A
:10042000F11DE35AFF4FF0829FB7F8940B8FEA89D2
:10043000FB8980818062CFCFCF93DF93EC01888DE1
:100440008823B9F0AA89BB89E889F9898C9185FD4F
:1004500003C0808186FD0DC00FB607FCF7CF8C91DD
:1004600085FFF2CF808185FFEDCFCE010E94AD01E7
:10047000E9CFDF91CF91089583E393E00E941C02BE
:10048000E3E3F3E0A289B3898C918F7E8C93A289F8
:10049000B3898C91877F8C93A289B3898C918F7754
:1004A0008C93A289B3898C918F7D8C93828D818F5F
:1004B0000895833081F028F4813099F08230A9F0DA
:1004C00008958730A9F08830C9F08430B1F4809164
:1004D00080008F7D03C0809180008F7780938000A3
:1004E000089584B58F7784BD089584B58F7DFBCF43
:1004F0008091B0008F778093B00008958091B00014
:100500008F7DF9CF1F93CF93DF93282F30E0F90130
:10051000E255FF4F8491F901E656FF4FD491F9015E
:10052000EA57FF4FC491CC23A9F0162F81110E94E6
:100530005902EC2FF0E0EE0FFF1FE458FF4FA5919A
:10054000B4918FB7F894EC91111108C0D095DE23C7
:10055000DC938FBFDF91CF911F910895DE2BF8CFF1
:10056000CF93DF9390E0FC01E656FF4F24918A572A
:100570009F4FFC0184918823D1F090E0880F991F50
:10058000FC01EE58FF4FA591B491FC01E458FF4FD8
:10059000C591D49161110EC09FB7F8948C91E22F50
:1005A000E0958E238C932881E223E8839FBFDF911F
:1005B000CF9108958FB7F894EC91E22BEC938FBF15
:1005C000F6CF3FB7F8948091210390912203A09138
:1005D0002303B091240326B5A89B05C02F3F19F033
:1005E0000196A11DB11D3FBFBA2FA92F982F8827B3
:1005F000BC01CD01620F711D811D911D42E0660F8E
:10060000771F881F991F4A95D1F708958F929F925F
:10061000AF92BF92CF92DF92EF92FF924B015C01BB
:100620000E94E1026B017C010E94E1026C197D09CC
:100630008E099F09683E734081059105A8F321E06A
:10064000821A9108A108B10888EEC80E83E0D81E6E
:10065000E11CF11C81149104A104B10429F7FF905D
:10066000EF90DF90CF90BF90AF909F908F900895C4
:100670008FB7F894809132038FBF0895CF93DF93A3
:1006800060E08AE00E9482020E942801C82F0E9436
:100690002801D0E0DC2FCC27C80FD11D61E08AE013
:1006A0000E948202CE01DF91CF91089561E082E045
:1006B0000E9482020E94E10260932A0370932B033E
:1006C00080932C0390932D0360E082E00C948202CF
:1006D00061E080E00E94820265E070E080E090E0EE
:1006E0000C9406030E943C0261E081E00E94B0028B
:1006F00061E081E00E94820260E082E00E9482026A
:1007000060E084E00E94820260E089E00E94820250
:1007100061E08AE00E94820260E080E00E94820242
:100720006AE070E080E090E00E94060360E081E013
:100730000E94820260E081E00E94B0022FB7F8942C
:100740008091250390912603A0912703B09128035F
:100750002FBF80932A0390932B03A0932C03B09375
:100760002D0308950E943C020E94720383E290E0F0
:100770000197F1F760E080E00E9482028BE290E056
:100780000197F1F70895FC0101900020E9F73197F6
:10079000AF01481B590BBC0183E393E00C942F017C
:1007A0008F929F92AF92BF920F931F93CF93DF933D
:1007B000CDB7DEB7A1970FB6F894DEBF0FBECDBFA1
:1007C00019A2423008F44AE08E010F5D1F4F842EBB
:1007D000912CB12CA12CA50194010E941008E62FA8
:1007E000B901CA01EA30F4F4E05DD801EE938D015D
:1007F000232B242B252B79F790E080E0109719F01C
:10080000CD010E94C303A1960FB6F894DEBF0FBEC0
:10081000CDBFDF91CF911F910F91BF90AF909F906F
:100820008F900895E95CE1CF0F931F93CF93DF93EF
:100830008C01D0E0C0E0F801EC0FFD1F649166234D
:1008400041F083E393E00E94CF01892B11F02196C0
:10085000F2CF8DE191E00E94C3038C0F9D1FDF91C9
:10086000CF911F910F910895CF92DF92EF92FF9257
:100870000F931F93CF93DF930E94E10200912A030D
:1008800010912B0320912C0330912D03601B710BD1
:10089000820B930B623071058105910568F3EFEAD5
:1008A000F0E08491EBE9F0E0F490E7E8F0E0C49147
:1008B000CC2309F464C081110E945902EC2FF0E0AE
:1008C000EE0FFF1FE859FF4FA591B491EC91EF2176
:1008D00009F455C08CE591E00E9425010E94280191
:1008E00061E089E00E94820260E089E00E94820269
:1008F00083E090E00197F1F7C3E0D0E007E010E07B
:1009000061E089E00E948202C8010197F1F760E08E
:1009100089E00E948202C8010197F1F7219781F7CF
:1009200030E8C32E3EEFD32EEE24EA94FE2C61E095
:1009300089E00E9482020000000060E089E00E94DD
:1009400082028FEFC816D104E104F10409F018F512
:100950000E943E03F601EE0FFF1FE05EFE4F918303
:1009600080838FEFC81AD80AE80AF80A80E8C81608
:1009700082E0D806E104F104D1F681E003C00E94D0
:10098000680380E0DF91CF911F910F91FF90EF906E
:10099000DF90CF9008950E943E03E3CFCF93DF9383
:1009A000C0E2D1E06991799190E080E04AE00E9454
:1009B000D0038DE191E00E94C30383E0C032D807E9
:1009C00089F783E393E0DF91CF910C941C021F928F
:1009D0000F920FB60F9211242F933F934F935F9373
:1009E0006F937F938F939F93AF93BF93EF93FF93F7
:1009F00083E393E00E94AD01FF91EF91BF91AF912E
:100A00009F918F917F916F915F914F913F912F9126
:100A10000F900FBE0F901F9018951F920F920FB658
:100A20000F9211242F938F939F93EF93FF93E09155
:100A30004303F09144038081E0914903F0914A031C
:100A400082FD1BC0908180914C038F5F8F7320913A
:100A50004D03821741F0E0914C03F0E0ED5CFC4F58
:100A6000958F80934C03FF91EF919F918F912F91E0
:100A70000F900FBE0F901F9018958081F4CF1F929A
:100A80000F920FB60F9211242F933F938F939F9342
:100A9000AF93BF938091250390912603A0912703E4
:100AA000B09128033091200323E0230F2D3758F510
:100AB0000196A11DB11D20932003809325039093DF
:100AC0002603A0932703B0932803809121039091DC
:100AD0002203A0912303B09124030196A11DB11D0F
:100AE0008093210390932203A0932303B0932403C4
:100AF000BF91AF919F918F913F912F910F900FBE1A
:100B00000F901F90189526E8230F0296A11DB11D86
:100B1000D2CF789484B5826084BD84B5816084BD71
:100B200085B5826085BD85B5816085BD80916E008B
:100B3000816080936E0010928100809181008260BC
:100B400080938100809181008160809381008091F9
:100B500080008160809380008091B10084608093E8
:100B6000B1008091B00081608093B00080917A00E4
:100B7000846080937A0080917A00826080937A000A
:100B800080917A00816080937A0080917A008068F9
:100B900080937A001092C10060E087E00E94B0026A
:100BA00061E080E00E94B00261E082E00E94B00259
:100BB00061E083E00E94B00261E084E00E94B00244
:100BC00061E089E00E94B00261E08AE00E94B00228
:100BD00060E08CE00E94B00261E08DE00E94B00213
:100BE00061E080E00E9482020E9472038CE591E045
:100BF0000E94250160E08AE00E9482020E94280192
:100C00000E94280161E08AE00E9482020E9456034D
:100C10000E94FD0023E0822E912CA12CB12CC0E07B
:100C2000D0E011E080912E0390912F03A09130032A
:100C3000B09131030196A11DB11D80932E039093B5
:100C40002F03A0933003B09331032FB7F894809112
:100C5000250390912603A0912703B09128032FBF6D
:100C600040912A0350912B0360912C0370912D0326
:100C7000841B950BA60BB70B8B359105A105B10510
:100C800010F00E94560380912903882309F4ADC017
:100C900083E393E00E948D01181619061CF583E387
:100CA00093E00E946B01E82F80ED8E0F8A3008F0F0
:100CB00076C02091000130910101409102015091D4
:100CC0000301AAE0B0E00E94BF07EF706E0F711D34
:100CD000811D911D609300017093010180930201B9
:100CE0009093030180910401882309F447C0609127
:100CF0002E0370912F038091300390913103A50151
:100D000094010E941008672B682B692BB9F50E948B
:100D10003C020E94B203C0900001D0900101E0901B
:100D20000201F090030161E083E00E948202E6E0AC
:100D3000CE1AD108F2E0CF16D10440F0CC0CDD1C65
:100D4000CC0CDD1CC60105970197F1F760E083E04C
:100D50000E9482020E943404F82E6AE070E080E073
:100D600090E00E9406030E94FD006AE070E080E0CF
:100D700090E00E940603F1100E94CE0464E670E049
:100D800080E090E00E940603209709F44BCF0E9478
:100D90009901882309F446CF0E94000043CFE13235
:100DA00009F0A0CF10922903C0900001D09001015A
:100DB000E0900201F09003014AE0C701B601F7FE9E
:100DC0000DC06DE283E393E00E94CF016627772791
:100DD000CB016C197D098E099F094AE00E94D0035E
:100DE0008DE191E00E94C3037DCF83E393E00E94F5
:100DF0008D01181619060CF075CF83E393E00E945D
:100E00006B018354853108F06DCFE82FF0E0E55F8A
:100E1000F84F0C943208540772067C07720672066B
:100E20007206720672067206200772067206720653
:100E3000720627073C0735077206720672062E07F0
:100E400082E991E00E941404109304014BCF81E8E1
:100E500091E00E9414041092040144CF82E691E0D4
:100E60000E9414040E94B2033DCF8FE491E00E94DF
:100E700014040E94680336CF88E391E00E941404B2
:100E800069E070E090E080E00E945D097C010097DD
:100E900009F428CFFC0110826FE271E00E94B807CC
:100EA000C7010E94D4081ECF8BE091E00E94140479
:100EB000C0900001D0900101E0900201F090030188
:100EC00061E083E00E948202F6E0CF1AD10882E05E
:100ED000C816D10440F0CC0CDD1CCC0CDD1CC601C6
:100EE00005970197F1F760E083E00E9482020E947B
:100EF00034040E94CE04F6CE82EC90E00E941404EA
:100F00001093290310920001109201011092020126
:100F100010920301E7CEE3E3F3E01382128288EE3E
:100F200093E0A0E0B0E084839583A683B7838FE04D
:100F300091E09183808385EC90E09587848784ECB1
:100F400090E09787868780EC90E0918B808B81EC96
:100F500090E0938B828B82EC90E0958B848B86EC77
:100F600090E0978B868B118E128E138E148E0895BF
:100F7000FB01DC0105900D920020E1F708950E942D
:100F80000108A59F900DB49F900DA49F800D911D09
:100F9000112408952F923F924F925F926F927F9209
:100FA0008F929F92AF92BF92CF92DF92EF92FF9279
:100FB0000F931F93CF93DF93CDB7DEB7CA1BDB0B25
:100FC0000FB6F894DEBF0FBECDBF09942A883988CA
:100FD00048885F846E847D848C849B84AA84B984D1
:100FE000C884DF80EE80FD800C811B81AA81B981DD
:100FF000CE0FD11D0FB6F894DEBF0FBECDBFED01F1
:101000000895A29FB001B39FC001A39F700D811DE1
:101010001124911DB29F700D811D1124911D089501
:10102000A1E21A2EAA1BBB1BFD010DC0AA1FBB1FEC
:10103000EE1FFF1FA217B307E407F50720F0A21B5E
:10104000B30BE40BF50B661F771F881F991F1A94CB
:1010500069F760957095809590959B01AC01BD01F5
:10106000CF010895EE0FFF1F0590F491E02D099434
:101070000F931F93CF93DF938230910510F482E09A
:1010800090E0E091D203F091D30330E020E0B0E0B3
:10109000A0E0309799F42115310509F44AC0281BC6
:1010A000390B24303105D8F58A819B816115710592
:1010B00089F1FB0193838283FE0111C0408151813C
:1010C0000281138148175907E0F04817590799F42E
:1010D000109761F012960C93129713961C93329608
:1010E000CF01DF91CF911F910F9108950093D2030B
:1010F0001093D303F4CF2115310551F04217530754
:1011000038F0A901DB019A01BD01DF01F801C1CF6F
:10111000EF01F9CF9093D3038093D203CDCFFE019B
:10112000E20FF31F81939193225031093983288371
:10113000D7CF2091D0033091D103232B41F42091BC
:101140000701309108013093D1032093D0032091FF
:101150000501309106012115310541F42DB73EB747
:101160004091090150910A01241B350BE091D003F5
:10117000F091D103E217F307A0F42E1B3F0B2817C1
:10118000390778F0AC014E5F5F4F2417350748F000
:101190004E0F5F1F5093D1034093D00381939193DF
:1011A0009FCFF0E0E0E09CCFCF93DF930097E9F092
:1011B000FC01329713821282A091D203B091D30323
:1011C000ED0130E020E01097A1F420813181820F01
:1011D000931F2091D0033091D1032817390709F0CC
:1011E00061C0F093D103E093D003DF91CF910895D4
:1011F000EA01CE17DF07E8F54A815B819E014115C0
:101200005105B1F7E901FB83EA8349915991C40F74
:10121000D51FEC17FD0761F4808191810296840F40
:10122000951FE90199838883828193819B838A83B7
:10123000F0E0E0E012968D919C9113970097B9F53C
:101240002D913C911197CD010296820F931F209111
:10125000D0033091D1032817390739F6309751F56B
:101260001092D3031092D203B093D103A093D00372
:10127000BCCFD383C28340815181840F951FC8178F
:10128000D90761F44E5F5F4F88819981480F591FDC
:10129000518340838A819B81938382832115310509
:1012A00009F0B0CFF093D303E093D2039ECFFD01BA
:1012B000DC01C0CF13821282D7CFB0E0A0E0E3E61A
:1012C000F9E00C94CC078C01009751F4CB010E94FB
:1012D00038088C01C801CDB7DEB7E0E10C94E8070F
:1012E000FC01E60FF71F9C0122503109E217F307BA
:1012F00008F49DC0D901CD91DC911197C617D7078D
:1013000098F0C530D10530F3CE01049786179707C2
:1013100008F3C61BD70B2297C193D1936D937C938F
:10132000CF010E94D408D6CF5B01AC1ABD0A4C0194
:101330008C0E9D1EA091D203B091D303512C412C51
:10134000F12CE12C109731F58091D0039091D103CD
:101350008815990509F05CC04616570608F058C074
:101360008091050190910601009741F48DB79EB7D9
:101370004091090150910A01841B950BE817F90768
:1013800008F055C0F093D103E093D003F9017183C5
:101390006083A0CF8D919C91119712966C901297BB
:1013A00013967C901397A815B90559F56C0142E086
:1013B000C40ED11CCA14DB0420F1AC014A195B092C
:1013C000DA011296159780F062827382518340830E
:1013D000D9016D937C93E114F10471F0D701139658
:1013E000FC93EE93129776CF22968C0F9D1FF901F6
:1013F00091838083F301EFCFF093D303E093D20383
:1014000069CF4816590608F42C017D01D3019ACF03
:10141000CB010E9438087C01009749F0AE01B80169
:101420000E941A0AC8010E94D408870153CF10E015
:1014300000E050CFFB01DC0102C001900D92415051
:0A1440005040D8F70895F894FFCF4C
:10144A00E8030000010000D403800000000000CF80
:10145A00012F015C011C028D016B017F010D0A0045
:00000001FF
